:020000040800F2
:1000000000800120DD100008651000086B1000085A
:1000100071100008771000087D1000080000000033
:100020000000000000000000000000008310000835
:1000300091100008000000009F100008AD1000089B
:100040002D1100082D1100082D1100082D11000898
:100050002D1100082D1100082D1100082D11000888
:100060002D1100082D1100082D1100082D11000878
:100070002D1100082D1100082D1100082D11000868
:100080002D1100082D1100082D110008000000009E
:100090000000000000000000000000002D1100081A
:1000A0002D1100082D1100082D1100082D11000838
:1000B0002D1100082D1100082D1100082D11000828
:1000C0002D1100082D1100082D1100082D11000818
:1000D0002D1100082D1100082D110008000000004E
:1000E0002D1100082D1100082D110008000000003E
:1000F0000000000000000000000000002D110008BA
:10010000000000002D1100082D1100082D1100081D
:1001100000000000000000000000000000000000DF
:100120002D1100082D1100082D1100082D110008B7
:100130002D11000800000000000000000000000079
:100140000000000000000000000000002D11000869
:100150002D1100082D1100082D1100082D11000887
:100160002D1100082D110008000000000000000003
:10017000000000000000000000000000000000007F
:10018000000000002D110008000000000000000029
:040190002D11000825
:1001940010B5054C237833B9044B13B10448AFF3BD
:1001A40000800123237010BD0C000020000000001B
:1001B4001420000808B5034B1BB103490348AFF3EF
:1001C400008008BD0000000010000020142000087A
:1001D40053B94AB9002908BF00281CBF4FF0FF31AA
:1001E4004FF0FF3000F06EB9ADF1080C6DE904CEAC
:1001F40000F006F8DDF804E0DDE9022304B07047FE
:100204002DE9F047089D04468C46002B40F083807E
:100214008A42174647D9B2FA82F242B1C2F12000AB
:1002240024FA00F09140974040EA010C94404FEAD0
:100234001748230CBCFBF8F61FFA87FE08FB16C10F
:1002440043EA014306FB0EF1994209D9FB1806F172
:10025400FF3080F01981994240F21681023E3B44FE
:100264005B1AA4B2B3FBF8F008FB103344EA03446E
:1002740000FB0EFEA64509D93C1900F1FF3380F0BE
:100284000581A64540F2028102383C4440EA06401A
:10029400A4EB0E0400261DB1D4400023C5E900439D
:1002A4003146BDE8F08702B9FFDEB2FA82F2002AD5
:1002B40050D1CB1B4FEA174E1FFA87F80126B3FB28
:1002C400FEFC210C0EFB1C3341EA034108FB0CF33A
:1002D4008B4207D979180CF1FF3002D28B4200F21D
:1002E400E9808446C91AA3B2B1FBFEF00EFB1011DB
:1002F40043EA014408FB00F8A04507D93C1900F182
:10030400FF3302D2A04500F2D9801846A4EB0804BA
:1003140040EA0C40BFE78B4209D9002D00F0B180C0
:100324000026C5E9000130463146BDE8F087B3FA3E
:1003340083F6002E4AD18B4202D3824200F2B88067
:10034400841A61EB030101208C46002DA8D0C5E975
:10035400004CA5E7C2F1200320FA03F6974001FA06
:1003640002F04FEA174ED9403043030CB1FBFEF6BE
:100374001FFA87F80EFB161143EA014306FB08F146
:10038400994204FA02F409D9FB1806F1FF3C80F003
:100394008D80994240F28A80023E3B445B1A81B2CE
:1003A400B3FBFEF00EFB103341EA034100FB08F3FC
:1003B4008B4207D9791800F1FF3C73D28B4271D973
:1003C40002383944CB1A40EA064678E7C6F1200CD5
:1003D40003FA06F422FA0CF31C4320FA0CF701FA90
:1003E40006F34FEA144E21FA0CF11F433B0CB1FB08
:1003F400FEF91FFA84F80EFB191143EA014109FBC7
:1004040008FA8A4502FA06F200FA06F308D96118D6
:1004140009F1FF3048D28A4546D9A9F1020921449D
:10042400A1EB0A01BFB2B1FBFEF00EFB101147EACB
:10043400014700FB08F8B84507D9E71900F1FF3177
:100444002ED2B8452CD90238274440EA0940A7EBFC
:100454000807A0FB02894F45C64649461AD317D060
:100464005DB1B3EB0E0267EB010707FA0CFCF24037
:100474004CEA0202F740C5E9002700263146BDE8F0
:10048400F0872E4628460BE70646E9E61846FDE6C1
:100494004345E5D2B8EB020E69EB04010138DFE70E
:1004A4000846D2E760468DE78146B9E7664675E7B8
:1004B40030464AE7ACF1020C394413E702383C44B5
:1004C40024E700BF704700BF80B582B000AF034689
:1004D400FB71FB7903F00103DBB21A4620211248B9
:1004E40001F03CF9FB7903F00203DBB21A46102158
:1004F4000D4801F033F9FB7903F00403DBB21A462B
:100504004FF48061084801F029F9FB7903F00803EE
:10051400DBB21A464FF48071044801F01FF900BFA2
:100524000837BD4680BD00BF000402400000024001
:1005340080B582B000AF0346FB71002280210C48D5
:1005440001F00CF901228021094801F007F9FB7937
:100554001846FFF7B9FF012000F05AFE002280215F
:10056400034801F0FBF800BF0837BD4680BD00BF5B
:100574000008024080B500AF0320FFF7D9FF032035
:10058400FFF7D6FF0320FFF7D3FF0220FFF7D0FFCA
:100594000220FFF7CDFF0820FFF7CAFF0020FFF776
:1005A400C7FF0820FFF7C4FF0020FFF7C1FF0120A9
:1005B400FFF7BEFF0020FFF7BBFF0E20FFF7B8FFD9
:1005C40000BF80BD80B584B000AF03460A46FB710E
:1005D4001346BB71BB79012B0ED1FB79803BFB73B6
:1005E400FB7980331B11BB73BB7B1846FFF7A0FF5D
:1005F400FB7B1846FFF79CFFBB79022B0ED1FB79DE
:10060400403BFB73FB79C0331B11BB73BB7B1846A8
:10061400FFF78EFFFB7B1846FFF78AFFBB79032B9E
:100624000ED1FB796C3BFB73FB7994331B11BB73C9
:10063400BB7B1846FFF77CFFFB7B1846FFF778FF70
:10064400BB79042B0ED1FB792C3BFB73FB79D433A0
:100654001B11BB73BB7B1846FFF76AFFFB7B184675
:10066400FFF766FF00BF1037BD4680BD80B584B07C
:1006740000AF0346FB71FB791B09FB73FB79BB736A
:1006840001224FF400710A4801F068F8FB7B184618
:10069400FFF74EFFBB7B1846FFF74AFF00224FF4DB
:1006A4000071034801F05AF800BF1037BD4680BD01
:1006B4000000024080B584B000AF78600023FB6086
:1006C40009E0FB687A6813441B781846FFF7CEFFED
:1006D400FB680133FB60FB687A6813441B78002BCA
:1006E400EFD100BF00BF1037BD4680BD90B585B0C7
:1006F40000AF0446084611461A462346FB710346DA
:10070400BB710B467B7113463B71FB79012B40F0A7
:1007140087800420FFF70CFF0020FFF709FF012268
:100724004FF40071864801F019F8BB791B09FB737B
:10073400BB79BB73FB7B1846FFF7FAFEBB7B1846FD
:10074400FFF7F6FE7B791B09FB737B79BB73FB7B9D
:100754001846FFF7EDFEBB7B1846FFF7E9FE3B7931
:100764001B09FB733B79BB73FB7B1846FFF7E0FE69
:10077400BB7B1846FFF7DCFE97F820301B09FB73A0
:1007840097F82030BB73FB7B1846FFF7D1FEBB7B89
:100794001846FFF7CDFE97F824301B09FB7397F832
:1007A4002430BB73FB7B1846FFF7C2FEBB7B1846A5
:1007B400FFF7BEFE97F828301B09FB7397F8283023
:1007C400BB73FB7B1846FFF7B3FEBB7B1846FFF7F2
:1007D400AFFE97F82C301B09FB7397F82C30BB73D2
:1007E400FB7B1846FFF7A4FEBB7B1846FFF7A0FE71
:1007F40097F830301B09FB7397F83030BB73FB7BE1
:100804001846FFF795FEBB7B1846FFF791FE0022C2
:100814004FF400714A4800F0A1FF642000F0F8FC96
:10082400FB79022B40F087800420FFF781FE08202B
:10083400FFF77EFE01224FF40071414800F08EFF65
:10084400BB791B097B73BB793B737B7B1846FFF732
:100854006FFE3B7B1846FFF76BFE7B791B097B73AE
:100864007B793B737B7B1846FFF762FE3B7B184624
:10087400FFF75EFE3B791B097B733B793B737B7B04
:100884001846FFF755FE3B7B1846FFF751FE97F8D5
:1008940020301B097B7397F820303B737B7B184611
:1008A400FFF746FE3B7B1846FFF742FE97F82430DD
:1008B4001B097B7397F824303B737B7B1846FFF747
:1008C40037FE3B7B1846FFF733FE97F828301B09A9
:1008D4007B7397F828303B737B7B1846FFF728FE21
:1008E4003B7B1846FFF724FE97F82C301B097B73DB
:1008F40097F82C303B737B7B1846FFF719FE3B7B44
:100904001846FFF715FE97F830301B097B7397F8EC
:1009140030303B737B7B1846FFF70AFE3B7B18465F
:10092400FFF706FE00224FF40071054800F016FFA1
:10093400642000F06DFC00BF1437BD4690BD00BFBD
:100944000000024080B582B000AF0346FB71012273
:100954004FF400710A4800F001FF0020FFF7E8FDA2
:10096400FB79013BDBB21846FFF7E2FD00224FF4AE
:100974000071034800F0F2FE00BF0837BD4680BD99
:100984000000024080B586B006AF00F0CFFB00F057
:100994004DF800F0ABF8FFF7EDFD002304931023AE
:1009A400039308230293042301930723009304234E
:1009B400082210210120FFF799FE174B1B78002B0A
:1009C40020D100F0B7F900F01BF9144B1B78002B71
:1009D40018D1134B1B78012B14D10020FFF7A8FD6D
:1009E4000120FFF7A5FD0C4B01221A700D4B0022CC
:1009F4001A700A4B00221A70094B00221A700A4B13
:100A040000221A70044B1B78012BD6D100F00AFA8D
:100A140000F0F6F8D1E700BF280000202A000020EB
:100A24002B000020290000202C00002080B594B069
:100A340000AF07F1200330220021184601F0E0FA4C
:100A440007F10C0300221A605A609A60DA601A6196
:100A54000023BB60234B1B6C224A43F08053136476
:100A6400204B1B6C03F08053BB60BB6800237B608E
:100A74001D4B1B6823F440431B4A43F4004313609B
:100A8400194B1B6803F440437B607B6802233B6281
:100A94000123FB6210233B630023BB6307F12003A4
:100AA400184600F075FE0346002B01D000F0AAFAA8
:100AB4000F23FB6000233B6100237B610023BB61A8
:100AC4000023FB6107F10C030021184601F0D8F85C
:100AD4000346002B01D000F095FA00BF5037BD4605
:100AE40080BD00BF003802400070004080B588B06F
:100AF40000AF07F10C0300221A605A609A60DA60B2
:100B04001A610023BB603A4B1B6B394A43F0010363
:100B14001363374B1B6B03F00103BB60BB680023FB
:100B24007B60334B1B6B324A43F002031363304B3D
:100B34001B6B03F002037B607B6800233B602C4B40
:100B44001B6B2B4A43F004031363294B1B6B03F009
:100B540004033B603B6800224FF48661254800F0A3
:100B6400FDFD00228021244800F0F8FD00224FF40E
:100B74004071224800F0F2FD0F23FB6000233B612B
:100B840001237B6107F10C0319461C4800F04AFC61
:100B94004FF48663FB6001233B6100237B610023E8
:100BA400BB6107F10C031946124800F03BFC80239B
:100BB400FB6001233B6100237B610023BB6107F1E0
:100BC4000C0319460C4800F02DFC4FF44073FB60F5
:100BD40001233B6100237B610023BB6107F10C030C
:100BE4001946064800F01EFC00BF2037BD4680BDF4
:100BF40000380240000402400008024000000240A5
:100C040080B500AF0821474800F090FD0346002B53
:100C140027D100BF0821434800F088FD0346002B7C
:100C2400F8D0142000F0F4FA3F4B1B780133DAB209
:100C34003D4B1A703D4B1B78002B07D13A4B1B7868
:100C4400022B0ED9384B00221A700AE0374B1B785E
:100C5400012B06D1344B1B78032B02D9324B0022D3
:100C64001A7004212F4800F061FD0346002B10D1B7
:100C740000BF04212B4800F059FD0346002BF8D097
:100C8400142000F0C5FA284B1B78013BDAB2264B3E
:100C94001A700121234800F049FD0346002B3ED180
:100CA40000BF01211F4800F041FD0346002BF8D08E
:100CB400142000F0ADFA1E4B1B780133DAB21C4B42
:100CC4001A701A4B1B78002B06D1194B1B78012B79
:100CD40002D9174B01221A70144B1B78012B06D131
:100CE400134B1B78022B02D9114B02221A700221DA
:100CF4000C4800F01BFD0346002B10D100BF02215D
:100D0400084800F013FD0346002BF8D0142000F02F
:100D14007FFA074B1B78013BDAB2054B1A7000BF10
:100D240080BD00BF000002402A00002028000020EF
:100D34002B00002080B500AF01210120FFF742FC09
:100D44003348FFF7B7FC02210220FFF73BFC314890
:100D5400FFF7B0FC03210220FFF734FC2E48FFF715
:100D6400A9FC04210220FFF72DFC2C48FFF7A2FC6C
:100D74002B4B1B78002B15D103210120FFF722FCFC
:100D84002020FFF773FC04210120FFF71BFC202027
:100D9400FFF76CFC02210120FFF714FC0120FFF790
:100DA400D1FD32E01E4B1B78012B15D1022101200D
:100DB400FFF708FC2020FFF759FC04210120FFF76E
:100DC40001FC2020FFF752FC03210120FFF7FAFB6E
:100DD4000120FFF7B7FD18E0114B1B78022B14D14B
:100DE40002210120FFF7EEFB2020FFF73FFC032147
:100DF4000120FFF7E7FB2020FFF738FC0421012046
:100E0400FFF7E0FB0120FFF79DFD00BF80BD00BFA1
:100E14002C200008342000083C200008442000084E
:100E24002A00002080B586B006AF002304931F2358
:100E3400039311230293112301931123009311238C
:100E440011221F210220FFF751FCFF230493FF23EB
:100E54000393FF230293FF230193FF230093FF23B4
:100E6400FF22FF210320FFF741FC604B1B78002B7E
:100E74004AD15F4B1B78002B46D101210120FFF79B
:100E8400A1FB5C48FFF716FC02210220FFF79AFB46
:100E94005948FFF70FFC03210220FFF793FB574843
:100EA400FFF708FC04210920FFF78CFB5448FFF7E7
:100EB40001FC04210820FFF785FB0320FFF742FD16
:100EC40004210D20FFF77EFB0320FFF73BFD0321E8
:100ED4000120FFF777FB2020FFF7C8FB0221012048
:100EE400FFF770FB0120FFF72DFD04210820FFF719
:100EF40069FB0220FFF726FD04210D20FFF762FBAA
:100F04000220FFF71FFD6EE0384B1B78012B20D128
:100F1400374B1B78002B1CD102210120FFF752FB19
:100F24002020FFF7A3FB03210120FFF74BFB012047
:100F3400FFF708FD04210820FFF744FB0220FFF718
:100F440001FD04210D20FFF73DFB0220FFF7FAFC11
:100F540049E0264B1B78012B20D1254B1B78012B14
:100F64001CD102210120FFF72DFB2020FFF77EFB7F
:100F740003210120FFF726FB2020FFF777FB042144
:100F84000820FFF71FFB0120FFF7DCFC04210D20E4
:100F9400FFF718FB0220FFF7D5FC24E0134B1B7866
:100FA400012B20D1124B1B78022B1CD102210120D2
:100FB400FFF708FB2020FFF759FB03210120FFF76F
:100FC40001FB2020FFF752FB04210820FFF7FAFA67
:100FD4000220FFF7B7FC04210D20FFF7F3FA0120EC
:100FE400FFF7B0FCFFE700BFBD4680BD2A0000202C
:100FF4002B00002034200008502000085C2000084A
:101004006820000880B400AF72B600BFFEE700009D
:1010140080B483B000AF00237B60104B5B6C0F4A3D
:1010240043F4804353640D4B5B6C03F480437B6057
:101034007B6800233B60094B1B6C084A43F08053D8
:101044001364064B1B6C03F080533B603B6800BF8A
:101054000C37BD465DF8047B704700BF0038024082
:1010640080B400AFFEE780B400AFFEE780B400AF09
:10107400FEE780B400AFFEE780B400AFFEE780B4C3
:1010840000AF00BFBD465DF8047B704780B400AF7D
:1010940000BFBD465DF8047B704780B400AF00BF5D
:1010A400BD465DF8047B704780B500AF00F090F852
:1010B40000BF80BD80B400AF064BD3F88830054A2A
:1010C40043F47003C2F8883000BFBD465DF8047B6A
:1010D400704700BF00ED00E0DFF834D00D480E4942
:1010E4000E4A002302E0D458C4500433C4188C427E
:1010F400F9D30B4A0B4C002301E013600432A242E3
:10110400FBD3FFF7D7FF00F057FFFFF73BFC704717
:1011140000800120000000200C0000209020000826
:101124000C00002034000020FEE7000080B500AF72
:101134000E4B1B680D4A43F4007313600B4B1B6882
:101144000A4A43F480631360084B1B68074A43F45C
:1011540080731360032000F031F90F2000F008F8C9
:10116400FFF756FF0023184680BD00BF003C024035
:1011740080B582B000AF7860124B1A68124B1B78AE
:1011840019464FF47A73B3FBF1F3B2FBF3F3184649
:1011940000F03BF90346002B01D001230EE07B68ED
:1011A4000F2B0AD8002279684FF0FF3000F011F9B4
:1011B400064A7B681360002300E0012318460837C1
:1011C400BD4680BD0000002008000020040000206F
:1011D40080B400AF064B1B781A46064B1B681344B9
:1011E400044A136000BFBD465DF8047B704700BF2E
:1011F400080000203000002080B400AF034B1B68BF
:101204001846BD465DF8047B704700BF30000020DF
:1012140080B584B000AF7860FFF7EEFFB8607B68FC
:10122400FB60FB68B3F1FF3F05D00A4B1B781A46FD
:10123400FB681344FB6000BFFFF7DEFF0246BB6898
:10124400D31AFA689A42F7D800BF00BF1037BD46D8
:1012540080BD00BF0800002080B485B000AF786076
:101264007B6803F00703FB600C4BDB68BB60BA6868
:101274004FF6FF031340BB60FB681A02BB681343BD
:1012840043F0BF6343F40033BB60044ABB68D360DC
:1012940000BF1437BD465DF8047B704700ED00E0E5
:1012A40080B400AF044BDB681B0A03F00703184645
:1012B400BD465DF8047B704700ED00E080B483B068
:1012C40000AF03463960FB7197F90730002B0ADB46
:1012D4003B68DAB20C4997F907301201D2B20B44D9
:1012E40083F800230AE03B68DAB20849FB7903F08B
:1012F4000F03043B1201D2B20B441A7600BF0C3721
:10130400BD465DF8047B704700E100E000ED00E0BD
:1013140080B489B000AFF860B9607A60FB6803F00C
:101324000703FB61FB69C3F10703042B28BF0423F4
:10133400BB61FB690433062B02D9FB69033B00E064
:1013440000237B614FF0FF32BB6902FA03F3DA43F7
:10135400BB681A407B699A404FF0FF317B6901FA00
:1013640003F3D9437B680B40134318462437BD4627
:101374005DF8047B7047000080B582B000AF7860F0
:101384007B68013BB3F1807F01D301230FE00A4A5C
:101394007B68013B53600F214FF0FF30FFF78EFF56
:1013A400054B00229A60044B07221A60002318465A
:1013B4000837BD4680BD00BF10E000E080B582B0B4
:1013C40000AF78607868FFF747FF00BF0837BD4675
:1013D40080BD80B586B000AF0346B9607A60FB7308
:1013E40000237B61FFF75CFF78617A68B9687869EC
:1013F400FFF78EFF024697F90F3011461846FFF7A4
:101404005DFF00BF1837BD4680BD80B582B000AF18
:1014140078607868FFF7B0FF034618460837BD4682
:1014240080BD000080B489B000AF786039600023CB
:101434007B6100233B610023BB610023FB6159E115
:101444000122FB6902FA03F37B613B681B687A693A
:1014540013403B613A697B699A4240F048813B689A
:101464005B6803F00303012B05D03B685B6803F062
:101474000303022B30D17B689B68BB61FB695B0073
:10148400032202FA03F3DB43BA691340BB613B68EE
:10149400DA68FB695B0002FA03F3BA691343BB61C0
:1014A4007B68BA699A607B685B68BB610122FB69EF
:1014B40002FA03F3DB43BA691340BB613B685B6820
:1014C4001B0903F00102FB6902FA03F3BA6913432F
:1014D400BB617B68BA695A603B685B6803F00303CD
:1014E400032B17D07B68DB68BB61FB695B000322BD
:1014F40002FA03F3DB43BA691340BB613B689A68A1
:10150400FB695B0002FA03F3BA691343BB617B68AE
:10151400BA69DA603B685B6803F00303022B23D1EA
:10152400FB69DA087B68083253F82230BB61FB6937
:1015340003F007039B000F2202FA03F3DB43BA69AB
:101544001340BB613B681A69FB6903F007039B0006
:1015540002FA03F3BA691343BB61FB69DA087B68D7
:101564000832B96943F822107B681B68BB61FB69C8
:101574005B00032202FA03F3DB43BA691340BB6145
:101584003B685B6803F00302FB695B0002FA03F348
:10159400BA691343BB617B68BA691A603B685B68CC
:1015A40003F44033002B00F0A2800023FB60574B70
:1015B4005B6C564A43F480435364544B5B6C03F4B2
:1015C4008043FB60FB68524AFB699B08023352F874
:1015D4002330BB61FB6903F003039B000F2202FA73
:1015E40003F3DB43BA691340BB617B68494A934206
:1015F40019D07B68484A934213D07B68474A934288
:101604000DD07B68464A934207D07B68454A934293
:1016140001D1042308E0072306E0032304E00223A6
:1016240002E0012300E00023FA6902F003029200C1
:101634009340BA691343BB613549FB699B08023384
:10164400BA6941F82320384B1B68BB613B69DB4313
:10165400BA691340BB613B685B6803F48033002BB9
:1016640003D0BA693B691343BB612F4ABB6913605A
:101674002D4B5B68BB613B69DB43BA691340BB61BB
:101684003B685B6803F40033002B03D0BA693B6901
:101694001343BB61244ABB695360234B9B68BB6102
:1016A4003B69DB43BA691340BB613B685B6803F485
:1016B4008013002B03D0BA693B691343BB611A4AF8
:1016C400BB699360184BDB68BB613B69DB43BA6958
:1016D4001340BB613B685B6803F40013002B03D029
:1016E400BA693B691343BB610F4ABB69D360FB69A9
:1016F4000133FB61FB690F2B7FF6A2AE00BF00BF75
:101704002437BD465DF8047B704700BF00380240B3
:10171400003801400000024000040240000802407A
:10172400000C024000100240003C014080B485B02F
:1017340000AF78600B467B807B681A697B88134016
:10174400002B02D00123FB7301E00023FB73FB7B1E
:1017540018461437BD465DF8047B704780B483B0E7
:1017640000AF78600B467B8013467B707B78002B40
:1017740003D07A887B689A6103E07B881A047B68CB
:101784009A6100BF0C37BD465DF8047B70470000CA
:1017940080B586B000AF78607B68002B01D101234F
:1017A40064E27B681B6803F00103002B75D0A34B34
:1017B4009B6803F00C03042B0CD0A04B9B6803F034
:1017C4000C03082B12D19D4B5B6803F48003B3F523
:1017D400800F0BD1994B1B6803F40033002B5BD0B3
:1017E4007B685B68002B57D101233FE27B685B6811
:1017F400B3F5803F06D1914B1B68904A43F4803384
:1018040013601DE07B685B68B3F5A02F0CD18B4B94
:101814001B688A4A43F480231360884B1B68874AF9
:1018240043F4803313600BE0844B1B68834A23F436
:1018340080331360814B1B68804A23F48023136038
:101844007B685B68002B13D0FFF7D6FC386108E097
:10185400FFF7D2FC02463B69D31A642B01D9032358
:1018640004E2764B1B6803F40033002BF0D014E041
:10187400FFF7C2FC386108E0FFF7BEFC02463B6993
:10188400D31A642B01D90323F0E16C4B1B6803F4D6
:101894000033002BF0D100E000BF7B681B6803F02D
:1018A4000203002B63D0654B9B6803F00C03002BF1
:1018B4000BD0624B9B6803F00C03082B1CD15F4BCD
:1018C4005B6803F48003002B16D15C4B1B6803F0A8
:1018D4000203002B05D07B68DB68012B01D00123B8
:1018E400C4E1564B1B6823F0F8027B681B69DB00DC
:1018F400524913430B603AE07B68DB68002B20D02D
:101904004F4B01221A60FFF777FC386108E0FFF7BC
:1019140073FC02463B69D31A022B01D90323A5E1C8
:10192400464B1B6803F00203002BF0D0434B1B68AB
:1019340023F0F8027B681B69DB00404913430B600A
:1019440015E03F4B00221A60FFF756FC386108E0AF
:10195400FFF752FC02463B69D31A022B01D9032339
:1019640084E1364B1B6803F00203002BF0D17B6843
:101974001B6803F00803002B30D07B685B69002BE5
:1019840016D0304B01221A60FFF736FC386108E0AC
:10199400FFF732FC02463B69D31A022B01D9032319
:1019A40064E1264B5B6F03F00203002BF0D015E0DB
:1019B400244B00221A60FFF71FFC386108E0FFF790
:1019C4001BFC02463B69D31A022B01D903234DE1C8
:1019D4001A4B5B6F03F00203002BF0D17B681B688A
:1019E40003F00403002B00F0A0800023FB75134BCD
:1019F4001B6C03F08053002B0FD10023BB600F4BF3
:101A04001B6C0E4A43F0805313640C4B1B6C03F0A5
:101A14008053BB60BB680123FB750B4B1B6803F44D
:101A24008073002B21D1084B1B68074A43F4807351
:101A34001360FFF7E1FB386111E000BF003802409A
:101A440000004742800E474200700040FFF7D4FB7D
:101A540002463B69D31A022B01D9032306E1854BC5
:101A64001B6803F48073002BF0D07B689B68012B08
:101A740006D1814B1B6F804A43F0010313671CE0BE
:101A84007B689B68052B0CD17B4B1B6F7A4A43F018
:101A940004031367784B1B6F774A43F00103136702
:101AA4000BE0754B1B6F744A23F001031367724BF1
:101AB4001B6F714A23F0040313677B689B68002B38
:101AC40015D0FFF799FB38610AE0FFF795FB024652
:101AD4003B69D31A41F28832934201D90323C5E00A
:101AE400654B1B6F03F00203002BEED014E0FFF7ED
:101AF40083FB38610AE0FFF77FFB02463B69D31A98
:101B040041F28832934201D90323AFE05A4B1B6F51
:101B140003F00203002BEED1FB7D012B05D1564BC4
:101B24001B6C554A23F0805313647B689B69002B1C
:101B340000F09B80504B9B6803F00C03082B5CD097
:101B44007B689B69022B41D14C4B00221A60FFF742
:101B540053FB386108E0FFF74FFB02463B69D31A99
:101B6400022B01D9032381E0434B1B6803F000736C
:101B7400002BF0D17B68DA697B681B6A1A437B68A7
:101B84005B6A9B011A437B689B6A5B08013B1B04ED
:101B94001A437B68DB6A1B06374913434B60374B98
:101BA40001221A60FFF728FB386108E0FFF724FBE5
:101BB40002463B69D31A022B01D9032356E02E4B6C
:101BC4001B6803F00073002BF0D04EE02B4B002277
:101BD4001A60FFF711FB386108E0FFF70DFB0246BE
:101BE4003B69D31A022B01D903233FE0224B1B6824
:101BF40003F00073002BF0D137E07B689B69012B65
:101C040001D1012332E01C4B5B68FB607B689B695C
:101C1400012B28D0FB6803F480027B68DB699A42BD
:101C240021D1FB6803F03F027B681B6A9A421AD1F8
:101C3400FA6847F6C07313407A68526A9201934275
:101C440011D1FB6803F440327B689B6A5B08013B5B
:101C54001B049A4207D1FB6803F070627B68DB6A5D
:101C64001B069A4201D0012300E0002318461837CE
:101C7400BD4680BD0070004000380240600047420D
:101C840080B584B000AF786039607B68002B01D1E7
:101C94000123CCE0684B1B6803F007033A689A42BF
:101CA4000CD9654B3A68D2B21A70634B1B6803F0C7
:101CB40007033A689A4201D00123B8E07B681B68A5
:101CC40003F00203002B20D07B681B6803F004039D
:101CD400002B05D0594B9B68584A43F4E05393605A
:101CE4007B681B6803F00803002B05D0534B9B68EB
:101CF400524A43F460439360504B9B6823F0F002D4
:101D04007B689B684D4913438B607B681B6803F0B9
:101D14000103002B44D07B685B68012B07D1474B40
:101D24001B6803F40033002B19D101237FE07B6887
:101D34005B68022B03D07B685B68032B07D13F4BA6
:101D44001B6803F00073002B09D101236FE03B4BA8
:101D54001B6803F00203002B01D1012367E0374B1A
:101D64009B6823F003027B685B68344913438B60F0
:101D7400FFF742FAF8600AE0FFF73EFA0246FB6812
:101D8400D31A41F28832934201D903234FE02B4BFB
:101D94009B6803F00C027B685B689B009A42EBD162
:101DA400254B1B6803F007033A689A420CD2224B76
:101DB4003A68D2B21A70204B1B6803F007033A68E2
:101DC4009A4201D0012332E07B681B6803F00403CC
:101DD400002B08D0194B9B6823F4E0527B68DB6826
:101DE400164913438B607B681B6803F00803002BC0
:101DF40009D0124B9B6823F460427B681B69DB00AB
:101E04000E4913438B6000F021F802460B4B9B688C
:101E14001B0903F00F030A49CB5C22FA03F3094AB6
:101E24001360094B1B681846FFF7A2F900231846F4
:101E34001037BD4680BD00BF003C02400038024060
:101E4400702000080000002004000020B0B584B019
:101E540000AF002179600021F96000213960002180
:101E6400B9605249896801F00C0108290DD008298C
:101E740000F29480002902D0042903D08EE04C4B58
:101E8400BB608EE04B4BBB608BE04849496801F076
:101E94003F0179604549496801F48001002924D053
:101EA40042494968890908464FF0000140F2FF148D
:101EB4004FF0000500EA040201EA05033D4901FB75
:101EC40003F0002101FB02F144183A49A2FB01018D
:101ED400631819467B681A464FF00003FEF778F939
:101EE40002460B461346FB604AE0304B5B689B0995
:101EF4001A464FF0000340F2FF104FF0000102EACF
:101F0400000403EA0105204629464FF000024FF081
:101F140000034B0143EAD063420110461946001BFB
:101F240061EB05014FF000024FF000038B0143EA1F
:101F340090638201121A63EB01034FF000004FF02B
:101F44000001D90041EA5271D00002460B46121931
:101F540045EB03034FF000004FF00001990241EA02
:101F64009251900202460B46104619467B681A4667
:101F74004FF00003FEF72CF902460B461346FB60B4
:101F84000A4B5B681B0C03F0030301335B003B60EB
:101F9400FA683B68B2FBF3F3BB6002E0044BBB603E
:101FA40000BFBB6818461037BD46B0BD00380240BC
:101FB4000024F40040787D0170B50D4D0D4C641B78
:101FC400A4100026A64209D10B4D0C4C00F020F8B9
:101FD400641BA4100026A64205D170BD55F8043B2D
:101FE40098470136EEE755F8043B98470136F2E787
:101FF4008820000888200008882000088C20000819
:1020040002440346934200D1704703F8011BF9E7E9
:10201400F8B500BFF8BC08BC9E467047F8B500BFD1
:08202400F8BC08BC9E467047A1
:10202C004D656E7500000000476C75636F73610041
:10203C00446F736973000000486973746F7269614F
:10204C006C00000041637475616C203A2000000044
:10205C00436F6E6669726D61723F00004E4F2020B7
:10206C00205349000000000000000000010203049E
:04207C000607080942
:0820800084E1FF7F0100000074
:04208800B901000892
:04208C0095010008B2
:0C2090000024F40010000000010000001B
:04000005080010DD02
:00000001FF
