:020000040800F2
:1000000000800120910C0008190C00081F0C00084A
:10001000250C00082B0C0008310C00080000000023
:10002000000000000000000000000000370C000885
:10003000450C000800000000530C0008610C00088B
:10004000E10C0008E10C0008E10C0008E10C0008DC
:10005000E10C0008E10C0008E10C0008E10C0008CC
:10006000E10C0008E10C0008E10C0008E10C0008BC
:10007000E10C0008E10C0008E10C0008E10C0008AC
:10008000E10C0008E10C0008E10C00080000000091
:10009000000000000000000000000000E10C00086B
:1000A000E10C0008E10C0008E10C0008E10C00087C
:1000B000E10C0008E10C0008E10C0008E10C00086C
:1000C000E10C0008E10C0008E10C0008E10C00085C
:1000D000E10C0008E10C0008E10C00080000000041
:1000E000E10C0008E10C0008E10C00080000000031
:1000F000000000000000000000000000E10C00080B
:1001000000000000E10C0008E10C0008E10C000810
:1001100000000000000000000000000000000000DF
:10012000E10C0008E10C0008E10C0008E10C0008FB
:10013000E10C0008000000000000000000000000CA
:10014000000000000000000000000000E10C0008BA
:10015000E10C0008E10C0008E10C0008E10C0008CB
:10016000E10C0008E10C00080000000000000000A5
:10017000000000000000000000000000000000007F
:1001800000000000E10C000800000000000000007A
:04019000E10C000876
:1001940010B5054C237833B9044B13B10448AFF3BD
:1001A40000800123237010BD0C000020000000001B
:1001B400981B000808B5034B1BB103490348AFF370
:1001C400008008BD0000000010000020981B0008FB
:1001D40053B94AB9002908BF00281CBF4FF0FF31AA
:1001E4004FF0FF3000F06EB9ADF1080C6DE904CEAC
:1001F40000F006F8DDF804E0DDE9022304B07047FE
:100204002DE9F047089D04468C46002B40F083807E
:100214008A42174647D9B2FA82F242B1C2F12000AB
:1002240024FA00F09140974040EA010C94404FEAD0
:100234001748230CBCFBF8F61FFA87FE08FB16C10F
:1002440043EA014306FB0EF1994209D9FB1806F172
:10025400FF3080F01981994240F21681023E3B44FE
:100264005B1AA4B2B3FBF8F008FB103344EA03446E
:1002740000FB0EFEA64509D93C1900F1FF3380F0BE
:100284000581A64540F2028102383C4440EA06401A
:10029400A4EB0E0400261DB1D4400023C5E900439D
:1002A4003146BDE8F08702B9FFDEB2FA82F2002AD5
:1002B40050D1CB1B4FEA174E1FFA87F80126B3FB28
:1002C400FEFC210C0EFB1C3341EA034108FB0CF33A
:1002D4008B4207D979180CF1FF3002D28B4200F21D
:1002E400E9808446C91AA3B2B1FBFEF00EFB1011DB
:1002F40043EA014408FB00F8A04507D93C1900F182
:10030400FF3302D2A04500F2D9801846A4EB0804BA
:1003140040EA0C40BFE78B4209D9002D00F0B180C0
:100324000026C5E9000130463146BDE8F087B3FA3E
:1003340083F6002E4AD18B4202D3824200F2B88067
:10034400841A61EB030101208C46002DA8D0C5E975
:10035400004CA5E7C2F1200320FA03F6974001FA06
:1003640002F04FEA174ED9403043030CB1FBFEF6BE
:100374001FFA87F80EFB161143EA014306FB08F146
:10038400994204FA02F409D9FB1806F1FF3C80F003
:100394008D80994240F28A80023E3B445B1A81B2CE
:1003A400B3FBFEF00EFB103341EA034100FB08F3FC
:1003B4008B4207D9791800F1FF3C73D28B4271D973
:1003C40002383944CB1A40EA064678E7C6F1200CD5
:1003D40003FA06F422FA0CF31C4320FA0CF701FA90
:1003E40006F34FEA144E21FA0CF11F433B0CB1FB08
:1003F400FEF91FFA84F80EFB191143EA014109FBC7
:1004040008FA8A4502FA06F200FA06F308D96118D6
:1004140009F1FF3048D28A4546D9A9F1020921449D
:10042400A1EB0A01BFB2B1FBFEF00EFB101147EACB
:10043400014700FB08F8B84507D9E71900F1FF3177
:100444002ED2B8452CD90238274440EA0940A7EBFC
:100454000807A0FB02894F45C64649461AD317D060
:100464005DB1B3EB0E0267EB010707FA0CFCF24037
:100474004CEA0202F740C5E9002700263146BDE8F0
:10048400F0872E4628460BE70646E9E61846FDE6C1
:100494004345E5D2B8EB020E69EB04010138DFE70E
:1004A4000846D2E760468DE78146B9E7664675E7B8
:1004B40030464AE7ACF1020C394413E702383C44B5
:1004C40024E700BF704700BF80B582B000AF034689
:1004D400FB71FB7903F00103DBB21A4620211248B9
:1004E40000F0FEFEFB7903F00203DBB21A46102192
:1004F4000D4800F0F5FEFB7903F00403DBB21A4665
:100504004FF48061084800F0EBFEFB7903F0080328
:10051400DBB21A464FF48071044800F0E1FE00BFDC
:100524000837BD4680BD00BF000402400000024001
:1005340080B582B000AF0346FB71002280210C48D5
:1005440000F0CEFE01228021094800F0C9FEFB79AB
:100554001846FFF7B9FF012000F034FC0022802187
:10056400034800F0BDFE00BF0837BD4680BD00BF94
:100574000008024080B500AF0320FFF7D9FF032035
:10058400FFF7D6FF0320FFF7D3FF0220FFF7D0FFCA
:100594000220FFF7CDFF0820FFF7CAFF0020FFF776
:1005A400C7FF0820FFF7C4FF0020FFF7C1FF0120A9
:1005B400FFF7BEFF0020FFF7BBFF0C20FFF7B8FFDB
:1005C40000BF80BD80B584B000AF03460A46FB710E
:1005D4001346BB71BB79012B0ED1FB79803BFB73B6
:1005E400FB7980331B11BB73BB7B1846FFF7A0FF5D
:1005F400FB7B1846FFF79CFFBB79022B0ED1FB79DE
:10060400403BFB73FB79C0331B11BB73BB7B1846A8
:10061400FFF78EFFFB7B1846FFF78AFFBB79032B9E
:100624000ED1FB796C3BFB73FB7994331B11BB73C9
:10063400BB7B1846FFF77CFFFB7B1846FFF778FF70
:10064400BB79042B0ED1FB792C3BFB73FB79D433A0
:100654001B11BB73BB7B1846FFF76AFFFB7B184675
:10066400FFF766FF00BF1037BD4680BD80B584B07C
:1006740000AF0346FB71FB791B09FB73FB79BB736A
:1006840001224FF400710A4800F02AFEFB7B184651
:10069400FFF74EFFBB7B1846FFF74AFF00224FF4DB
:1006A4000071034800F01CFE00BF1037BD4680BD3A
:1006B4000000024080B584B000AF78600023FB6086
:1006C40009E0FB687A6813441B781846FFF7CEFFED
:1006D400FB680133FB60FB687A6813441B78002BCA
:1006E400EFD100BF00BF1037BD4680BD90B585B0C7
:1006F40000AF0446084611461A462346FB710346DA
:10070400BB710B467B7113463B71FB79012B40F0A7
:1007140087800420FFF70CFF0020FFF709FF012268
:100724004FF40071864800F0DBFDBB791B09FB73B5
:10073400BB79BB73FB7B1846FFF7FAFEBB7B1846FD
:10074400FFF7F6FE7B791B09FB737B79BB73FB7B9D
:100754001846FFF7EDFEBB7B1846FFF7E9FE3B7931
:100764001B09FB733B79BB73FB7B1846FFF7E0FE69
:10077400BB7B1846FFF7DCFE97F820301B09FB73A0
:1007840097F82030BB73FB7B1846FFF7D1FEBB7B89
:100794001846FFF7CDFE97F824301B09FB7397F832
:1007A4002430BB73FB7B1846FFF7C2FEBB7B1846A5
:1007B400FFF7BEFE97F828301B09FB7397F8283023
:1007C400BB73FB7B1846FFF7B3FEBB7B1846FFF7F2
:1007D400AFFE97F82C301B09FB7397F82C30BB73D2
:1007E400FB7B1846FFF7A4FEBB7B1846FFF7A0FE71
:1007F40097F830301B09FB7397F83030BB73FB7BE1
:100804001846FFF795FEBB7B1846FFF791FE0022C2
:100814004FF400714A4800F063FD642000F0D2FAFE
:10082400FB79022B40F087800420FFF781FE08202B
:10083400FFF77EFE01224FF40071414800F050FDA5
:10084400BB791B097B73BB793B737B7B1846FFF732
:100854006FFE3B7B1846FFF76BFE7B791B097B73AE
:100864007B793B737B7B1846FFF762FE3B7B184624
:10087400FFF75EFE3B791B097B733B793B737B7B04
:100884001846FFF755FE3B7B1846FFF751FE97F8D5
:1008940020301B097B7397F820303B737B7B184611
:1008A400FFF746FE3B7B1846FFF742FE97F82430DD
:1008B4001B097B7397F824303B737B7B1846FFF747
:1008C40037FE3B7B1846FFF733FE97F828301B09A9
:1008D4007B7397F828303B737B7B1846FFF728FE21
:1008E4003B7B1846FFF724FE97F82C301B097B73DB
:1008F40097F82C303B737B7B1846FFF719FE3B7B44
:100904001846FFF715FE97F830301B097B7397F8EC
:1009140030303B737B7B1846FFF70AFE3B7B18465F
:10092400FFF706FE00224FF40071054800F0D8FCE2
:10093400642000F047FA00BF1437BD4690BD00BFE5
:100944000000024080B582B000AF0346FB71012273
:100954004FF400710A4800F0C3FC0020FFF7E8FDE3
:10096400FB79013BDBB21846FFF7E2FD00224FF4AE
:100974000071034800F0B4FC00BF0837BD4680BDD9
:100984000000024080B586B006AF00F0A9F900F07F
:1009940035F800F093F8FFF7EDFD4820FFF766FE09
:1009A4004F20FFF763FE4C20FFF760FE4120FFF766
:1009B4005DFE01210120FFF705FE0F48FFF77AFED7
:1009C400F720FFF753FE002304930E2303931F2302
:1009D40002931C2301931E2300931B230E22002148
:1009E4000120FFF783FE03210320FFF7EBFD012025
:1009F400FFF7A8FFFEE700BFB01B000880B594B066
:100A040000AF07F1200330220021184601F0BAF8A4
:100A140007F10C0300221A605A609A60DA601A61C6
:100A24000023BB60234B1B6C224A43F080531364A6
:100A3400204B1B6C03F08053BB60BB6800237B60BE
:100A44001D4B1B6823F440431B4A43F400431360CB
:100A5400194B1B6803F440437B607B6802233B62B1
:100A64000123FB6210233B630023BB6307F12003D4
:100A7400184600F04FFC0346002B01D000F09CF810
:100A84000F23FB6000233B6100237B610023BB61D8
:100A94000023FB6107F10C030021184600F0B2FEAD
:100AA4000346002B01D000F087F800BF5037BD4645
:100AB40080BD00BF003802400070004080B588B09F
:100AC40000AF07F10C0300221A605A609A60DA60E2
:100AD4001A610023BB60344B1B6B334A43F002039F
:100AE4001363314B1B6B03F00203BB60BB68002331
:100AF4007B602D4B1B6B2C4A43F0040313632A4B7E
:100B04001B6B03F004037B607B6800233B60264B74
:100B14001B6B254A43F001031363234B1B6B03F048
:100B240001033B603B6800224FF486611F4800F0DC
:100B3400D7FB002280211E4800F0D2FB00224FF494
:100B440040711C4800F0CCFB4FF48663FB6001232A
:100B54003B6100237B610023BB6107F10C03194651
:100B6400124800F039FA8023FB6001233B61002323
:100B74007B610023BB6107F10C0319460C4800F0AC
:100B84002BFA4FF44073FB6001233B6100237B612C
:100B94000023BB6107F10C031946064800F01CFA58
:100BA40000BF2037BD4680BD00380240000402402B
:100BB400000802400000024080B400AF72B600BFDB
:100BC400FEE7000080B483B000AF00237B60104BCD
:100BD4005B6C0F4A43F4804353640D4B5B6C03F42A
:100BE40080437B607B6800233B60094B1B6C084A95
:100BF40043F080531364064B1B6C03F080533B603B
:100C04003B6800BF0C37BD465DF8047B704700BFEE
:100C14000038024080B400AFFEE780B400AFFEE7C6
:100C240080B400AFFEE780B400AFFEE780B400AF4D
:100C3400FEE780B400AF00BFBD465DF8047B70479B
:100C440080B400AF00BFBD465DF8047B704780B43C
:100C540000AF00BFBD465DF8047B704780B500AFB0
:100C640000F090F800BF80BD80B400AF064BD3F80D
:100C74008830054A43F47003C2F8883000BFBD468B
:100C84005DF8047B704700BF00ED00E0DFF834D06E
:100C94000D480E490E4A002302E0D458C4500433D0
:100CA400C4188C42F9D30B4A0B4C002301E01360A7
:100CB4000432A242FBD3FFF7D7FF00F03FFFFFF758
:100CC40061FE704700800120000000200C0000201D
:100CD400DC1B00080C0000202C000020FEE70000B4
:100CE40080B500AF0E4B1B680D4A43F400731360CC
:100CF4000B4B1B680A4A43F480631360084B1B6860
:100D0400074A43F480731360032000F031F90F2085
:100D140000F008F8FFF756FF0023184680BD00BF17
:100D2400003C024080B582B000AF7860124B1A6874
:100D3400124B1B7819464FF47A73B3FBF1F3B2FBF1
:100D4400F3F3184600F03BF90346002B01D00123CE
:100D54000EE07B680F2B0AD8002279684FF0FF3031
:100D640000F011F9064A7B681360002300E00123B8
:100D740018460837BD4680BD00000020080000204A
:100D84000400002080B400AF064B1B781A46064BC3
:100D94001B681344044A136000BFBD465DF8047B1E
:100DA400704700BF080000202800002080B400AF76
:100DB400034B1B681846BD465DF8047B704700BFB3
:100DC4002800002080B584B000AF7860FFF7EEFF04
:100DD400B8607B68FB60FB68B3F1FF3F05D00A4B4A
:100DE4001B781A46FB681344FB6000BFFFF7DEFF65
:100DF4000246BB68D31AFA689A42F7D800BF00BF0C
:100E04001037BD4680BD00BF0800002080B485B007
:100E140000AF78607B6803F00703FB600C4BDB6872
:100E2400BB60BA684FF6FF031340BB60FB681A024D
:100E3400BB68134343F0BF6343F40033BB60044A0D
:100E4400BB68D36000BF1437BD465DF8047B7047B0
:100E540000ED00E080B400AF044BDB681B0A03F034
:100E640007031846BD465DF8047B704700ED00E0BB
:100E740080B483B000AF03463960FB7197F9073043
:100E8400002B0ADB3B68DAB20C4997F907301201F0
:100E9400D2B20B4483F800230AE03B68DAB2084973
:100EA400FB7903F00F03043B1201D2B20B441A7610
:100EB40000BF0C37BD465DF8047B704700E100E0DD
:100EC40000ED00E080B489B000AFF860B9607A60EA
:100ED400FB6803F00703FB61FB69C3F10703042B01
:100EE40028BF0423BB61FB690433062B02D9FB69C9
:100EF400033B00E000237B614FF0FF32BB6902FA41
:100F040003F3DA43BB681A407B699A404FF0FF3120
:100F14007B6901FA03F3D9437B680B4013431846FA
:100F24002437BD465DF8047B7047000080B582B06D
:100F340000AF78607B68013BB3F1807F01D301236C
:100F44000FE00A4A7B68013B53600F214FF0FF30EA
:100F5400FFF78EFF054B00229A60044B07221A60AC
:100F6400002318460837BD4680BD00BF10E000E0EE
:100F740080B582B000AF78607868FFF747FF00BFA4
:100F84000837BD4680BD80B586B000AF0346B96062
:100F94007A60FB7300237B61FFF75CFF78617A68FA
:100FA400B9687869FFF78EFF024697F90F3011464A
:100FB4001846FFF75DFF00BF1837BD4680BD80B5FA
:100FC40082B000AF78607868FFF7B0FF0346184638
:100FD4000837BD4680BD000080B489B000AF78609A
:100FE400396000237B6100233B610023BB61002344
:100FF400FB6159E10122FB6902FA03F37B613B685F
:101004001B687A6913403B613A697B699A4240F0F4
:1010140048813B685B6803F00303012B05D03B6800
:101024005B6803F00303022B30D17B689B68BB61D0
:10103400FB695B00032202FA03F3DB43BA69134042
:10104400BB613B68DA68FB695B0002FA03F3BA69C7
:101054001343BB617B68BA699A607B685B68BB6158
:101064000122FB6902FA03F3DB43BA691340BB6153
:101074003B685B681B0903F00102FB6902FA03F396
:10108400BA691343BB617B68BA695A603B685B68A1
:1010940003F00303032B17D07B68DB68BB61FB6998
:1010A4005B00032202FA03F3DB43BA691340BB611A
:1010B4003B689A68FB695B0002FA03F3BA6913435D
:1010C400BB617B68BA69DA603B685B6803F0030361
:1010D400022B23D1FB69DA087B68083253F82230EB
:1010E400BB61FB6903F007039B000F2202FA03F3C1
:1010F400DB43BA691340BB613B681A69FB6903F0BF
:1011040007039B0002FA03F3BA691343BB61FB694B
:10111400DA087B680832B96943F822107B681B68D7
:10112400BB61FB695B00032202FA03F3DB43BA6988
:101134001340BB613B685B6803F00302FB695B001F
:1011440002FA03F3BA691343BB617B68BA691A6094
:101154003B685B6803F44033002B00F0A28000235B
:10116400FB60574B5B6C564A43F480435364544BC7
:101174005B6C03F48043FB60FB68524AFB699B0889
:10118400023352F82330BB61FB6903F003039B0075
:101194000F2202FA03F3DB43BA691340BB617B6895
:1011A400494A934219D07B68484A934213D07B68DA
:1011B400474A93420DD07B68464A934207D07B68E6
:1011C400454A934201D1042308E0072306E00323A0
:1011D40004E0022302E0012300E00023FA6902F0A4
:1011E400030292009340BA691343BB613549FB691A
:1011F4009B080233BA6941F82320384B1B68BB6152
:101204003B69DB43BA691340BB613B685B6803F429
:101214008033002B03D0BA693B691343BB612F4A67
:10122400BB6913602D4B5B68BB613B69DB43BA69E7
:101234001340BB613B685B6803F40033002B03D0AD
:10124400BA693B691343BB61244ABB695360234BAE
:101254009B68BB613B69DB43BA691340BB613B6874
:101264005B6803F48013002B03D0BA693B69134312
:10127400BB611A4ABB699360184BDB68BB613B696D
:10128400DB43BA691340BB613B685B6803F400133A
:10129400002B03D0BA693B691343BB610F4ABB6996
:1012A400D360FB690133FB61FB690F2B7FF6A2AEB0
:1012B40000BF00BF2437BD465DF8047B704700BF04
:1012C400003802400038014000000240000402409F
:1012D40000080240000C024000100240003C0140A3
:1012E40080B483B000AF78600B467B8013467B707C
:1012F4007B78002B03D07A887B689A6103E07B8833
:101304001A047B689A6100BF0C37BD465DF8047B04
:101314007047000080B586B000AF78607B68002B12
:1013240001D1012364E27B681B6803F00103002BF5
:1013340075D0A34B9B6803F00C03042B0CD0A04B7B
:101344009B6803F00C03082B12D19D4B5B6803F4DC
:101354008003B3F5800F0BD1994B1B6803F4003362
:10136400002B5BD07B685B68002B57D101233FE2E5
:101374007B685B68B3F5803F06D1914B1B68904A4C
:1013840043F4803313601DE07B685B68B3F5A02FE2
:101394000CD18B4B1B688A4A43F480231360884B1F
:1013A4001B68874A43F4803313600BE0844B1B684B
:1013B400834A23F480331360814B1B68804A23F4EF
:1013C400802313607B685B68002B13D0FFF7EEFC6F
:1013D400386108E0FFF7EAFC02463B69D31A642B44
:1013E40001D9032304E2764B1B6803F40033002B7A
:1013F400F0D014E0FFF7DAFC386108E0FFF7D6FC20
:1014040002463B69D31A642B01D90323F0E16C4BE8
:101414001B6803F40033002BF0D100E000BF7B68AD
:101424001B6803F00203002B63D0654B9B6803F039
:101434000C03002B0BD0624B9B6803F00C03082BAE
:101444001CD15F4B5B6803F48003002B16D15C4B0B
:101454001B6803F00203002B05D07B68DB68012BBB
:1014640001D00123C4E1564B1B6823F0F8027B68CA
:101474001B69DB00524913430B603AE07B68DB686D
:10148400002B20D04F4B01221A60FFF78FFC3861EC
:1014940008E0FFF78BFC02463B69D31A022B01D903
:1014A4000323A5E1464B1B6803F00203002BF0D095
:1014B400434B1B6823F0F8027B681B69DB0040493F
:1014C40013430B6015E03F4B00221A60FFF76EFCDC
:1014D400386108E0FFF76AFC02463B69D31A022B25
:1014E40001D9032384E1364B1B6803F00203002B6C
:1014F400F0D17B681B6803F00803002B30D07B68B5
:101504005B69002B16D0304B01221A60FFF74EFCAA
:10151400386108E0FFF74AFC02463B69D31A022B04
:1015240001D9032364E1264B5B6F03F00203002B14
:10153400F0D015E0244B00221A60FFF737FC386125
:1015440008E0FFF733FC02463B69D31A022B01D9AA
:1015540003234DE11A4B5B6F03F00203002BF0D120
:101564007B681B6803F00403002B00F0A0800023B9
:10157400FB75134B1B6C03F08053002B0FD100231E
:10158400BB600F4B1B6C0E4A43F0805313640C4B2F
:101594001B6C03F08053BB60BB680123FB750B4BD2
:1015A4001B6803F48073002B21D1084B1B68074A86
:1015B40043F480731360FFF7F9FB386111E000BF57
:1015C4000038024000004742800E4742007000404D
:1015D400FFF7ECFB02463B69D31A022B01D9032324
:1015E40006E1854B1B6803F48073002BF0D07B6805
:1015F4009B68012B06D1814B1B6F804A43F001038A
:1016040013671CE07B689B68052B0CD17B4B1B6F1D
:101614007A4A43F004031367784B1B6F774A43F00D
:10162400010313670BE0754B1B6F744A23F001032E
:101634001367724B1B6F714A23F0040313677B68B3
:101644009B68002B15D0FFF7B1FB38610AE0FFF768
:10165400ADFB02463B69D31A41F28832934201D969
:101664000323C5E0654B1B6F03F00203002BEED090
:1016740014E0FFF79BFB38610AE0FFF797FB024693
:101684003B69D31A41F28832934201D90323AFE074
:101694005A4B1B6F03F00203002BEED1FB7D012B91
:1016A40005D1564B1B6C554A23F0805313647B6859
:1016B4009B69002B00F09B80504B9B6803F00C034C
:1016C400082B5CD07B689B69022B41D14C4B0022D8
:1016D4001A60FFF76BFB386108E0FFF767FB02460F
:1016E4003B69D31A022B01D9032381E0434B1B68C6
:1016F40003F00073002BF0D17B68DA697B681B6A06
:101704001A437B685B6A9B011A437B689B6A5B088C
:10171400013B1B041A437B68DB6A1B0637491343EE
:101724004B60374B01221A60FFF740FB386108E039
:10173400FFF73CFB02463B69D31A022B01D9032372
:1017440056E02E4B1B6803F00073002BF0D04EE0E4
:101754002B4B00221A60FFF729FB386108E0FFF7E2
:1017640025FB02463B69D31A022B01D903233FE030
:10177400224B1B6803F00073002BF0D137E07B6829
:101784009B69012B01D1012332E01C4B5B68FB6098
:101794007B689B69012B28D0FB6803F480027B687B
:1017A400DB699A4221D1FB6803F03F027B681B6A24
:1017B4009A421AD1FA6847F6C07313407A68526A9B
:1017C4009201934211D1FB6803F440327B689B6A17
:1017D4005B08013B1B049A4207D1FB6803F070626B
:1017E4007B68DB6A1B069A4201D0012300E00023D8
:1017F40018461837BD4680BD0070004000380240CE
:101804006000474280B584B000AF786039607B687F
:10181400002B01D10123CCE0684B1B6803F00703C4
:101824003A689A420CD9654B3A68D2B21A70634B43
:101834001B6803F007033A689A4201D00123B8E019
:101844007B681B6803F00203002B20D07B681B68B5
:1018540003F00403002B05D0594B9B68584A43F40A
:10186400E05393607B681B6803F00803002B05D0EA
:10187400534B9B68524A43F460439360504B9B68BC
:1018840023F0F0027B689B684D4913438B607B68AF
:101894001B6803F00103002B44D07B685B68012BB9
:1018A40007D1474B1B6803F40033002B19D10123E4
:1018B4007FE07B685B68022B03D07B685B68032B4B
:1018C40007D13F4B1B6803F00073002B09D10123A0
:1018D4006FE03B4B1B6803F00203002B01D1012393
:1018E40067E0374B9B6823F003027B685B683449ED
:1018F40013438B60FFF75AFAF8600AE0FFF756FAD1
:101904000246FB68D31A41F28832934201D9032379
:101914004FE02B4B9B6803F00C027B685B689B00D9
:101924009A42EBD1254B1B6803F007033A689A42AD
:101934000CD2224B3A68D2B21A70204B1B6803F0C7
:1019440007033A689A4201D0012332E07B681B689E
:1019540003F00403002B08D0194B9B6823F4E052D6
:101964007B68DB68164913438B607B681B6803F054
:101974000803002B09D0124B9B6823F460427B6858
:101984001B69DB000E4913438B6000F021F802460B
:101994000B4B9B681B0903F00F030A49CB5C22FA2B
:1019A40003F3094A1360094B1B681846FFF7BAF999
:1019B400002318461037BD4680BD00BF003C0240DE
:1019C40000380240BC1B0008000000200400002076
:1019D400B0B584B000AF002179600021F960002126
:1019E40039600021B9605249896801F00C01082965
:1019F4000DD0082900F29480002902D0042903D0D4
:101A04008EE04C4BBB608EE04B4BBB608BE0484997
:101A1400496801F03F0179604549496801F4800152
:101A2400002924D042494968890908464FF0000139
:101A340040F2FF144FF0000500EA040201EA050336
:101A44003D4901FB03F0002101FB02F144183A492E
:101A5400A2FB0101631819467B681A464FF0000384
:101A6400FEF7B6FB02460B461346FB604AE0304BDA
:101A74005B689B091A464FF0000340F2FF104FF0D9
:101A8400000102EA000403EA0105204629464FF05A
:101A940000024FF000034B0143EAD06342011046B9
:101AA4001946001B61EB05014FF000024FF00003E3
:101AB4008B0143EA90638201121A63EB01034FF036
:101AC40000004FF00001D90041EA5271D0000246F3
:101AD4000B46121945EB03034FF000004FF00001D1
:101AE400990241EA9251900202460B461046194669
:101AF4007B681A464FF00003FEF76AFB02460B466A
:101B04001346FB600A4B5B681B0C03F003030133B1
:101B14005B003B60FA683B68B2FBF3F3BB6002E036
:101B2400044BBB6000BFBB6818461037BD46B0BD50
:101B3400003802400024F40040787D0170B50D4D5A
:101B44000D4C641BA4100026A64209D10B4D0C4C6D
:101B540000F020F8641BA4100026A64205D170BD35
:101B640055F8043B98470136EEE755F8043B98478F
:101B74000136F2E7D41B0008D41B0008D41B00086C
:101B8400D81B000802440346934200D1704703F86F
:101B9400011BF9E7F8B500BFF8BC08BC9E467047C6
:0C1BA400F8B500BFF8BC08BC9E467047B6
:101BB0004C757A20746520616D6F00000000000094
:0C1BC000000000000102030406070809F1
:081BCC0038E6FF7F0100000074
:041BD400B90100084B
:041BD800950100086B
:0C1BDC000024F4001000000001000000D4
:0400000508000C9152
:00000001FF
